:100000000C945E000C9486000C9486000C94860080
:100010000C9486000C9486000C9486000C94860048
:100020000C9486000C9486000C9486000C94860038
:100030000C9486000C9486000C9486000C94860028
:100040000C9499050C9486000C9467050C9441055A
:100050000C9486000C9486000C9486000C94860008
:100060000C94E3050C948600000000002400270097
:100070002A0000000000250028002B0004040404CE
:100080000404040402020202020203030303030342
:10009000010204081020408001020408102001021F
:1000A00004081020000000080002010000030407FB
:1000B00000000000000000001107A70911241FBE66
:1000C000CFEFD8E0DEBFCDBF11E0A0E0B1E0EEE2BF
:1000D000F9E102C005900D92A036B107D9F723E0EF
:1000E000A0E6B1E001C01D92AB31B207E1F710E02C
:1000F000CDE5D0E004C02197FE010E94430BCC3532
:10010000D107C9F70E9457070C948A0C0C94000081
:10011000382F2091530290915202213208F049C0A9
:1001200080912F028111FCCF42E040932F02309347
:100130002E023FEF30932D0210922C0220932B02BF
:10014000A2E3B2E04BE052E0FA013E2F341B32173B
:1001500018F43D913193F9CF10920A0220910A02CE
:10016000990F922B90930A0290910902913061F4B9
:100170001092090290910A029093BB009091BC00EA
:1001800093FDF8CF95EC01C095EE9093BC00909153
:100190002F029230E1F390912D029F3F79F08091F0
:1001A0002D02803241F080912D02803331F084E0C5
:1001B00005C081E003C082E001C083E010923102FB
:1001C0001092530210923002089590E0FC01EC5519
:1001D000FF4F2491FC01E057FF4F3491FC01E4589C
:1001E000FF4FE491EE23B1F1222339F1233091F056
:1001F00038F42130A9F0223001F584B58F7D12C08A
:10020000273091F02830A1F02430B9F4809180009B
:100210008F7D03C0809180008F77809380000DC018
:1002200084B58F7784BD09C08091B0008F7703C0FB
:100230008091B0008F7D8093B000F0E0EE0FFF1F43
:10024000EE58FF4FA591B4918FB7F894EC913E2BE7
:100250003C938FBF0895CF92DF92EF92FF920F935E
:100260001F93CF93DF936C017A018B01C0E0D0E044
:10027000CE15DF0589F0D8016D918D01D601ED9184
:10028000FC910190F081E02DC6010995892B11F4B4
:100290007E0102C02196ECCFC701DF91CF911F9163
:1002A0000F91FF90EF90DF90CF900895FC01538D58
:1002B000448D252F30E0842F90E0821B930B541740
:1002C00010F0CF96089501970895FC01918D828DCD
:1002D000981761F0828DDF01A80FB11D5D968C919A
:1002E000928D9F5F9F73928F90E008958FEF9FEFA5
:1002F0000895FC01918D828D981731F0828DE80F61
:10030000F11D858D90E008958FEF9FEF0895FC011A
:10031000918D228D892F90E0805C9F4F821B9109E7
:100320008F739927089584E592E00E94870121E068
:10033000892B09F420E0822F0895FC01848DDF01D0
:10034000A80FB11DA35ABF4F2C91848D90E0019648
:100350008F739927848FA689B7892C93A089B18937
:100360008C9180648C93938D848D981306C0028841
:10037000F389E02D80818F7D80830895EF92FF9235
:100380000F931F93CF93DF93EC0181E0888F9B8DB8
:100390008C8D981305C0E889F989808185FD24C07A
:1003A000F62E0B8D10E00F5F1F4F0F731127E02EFD
:1003B0008C8DE8120CC00FB607FCFACFE889F989DA
:1003C000808185FFF5CFCE010E949D01F1CF8B8DFD
:1003D000FE01E80FF11DE35AFF4FF0820B8FEA890F
:1003E000FB898081806207C0EE89FF896083E8898C
:1003F000F98980818064808381E090E0DF91CF91F2
:100400001F910F91FF90EF900895CF93DF93EC0130
:10041000888D8823C9F0EA89FB89808185FD05C024
:10042000A889B9898C9186FD0FC00FB607FCF5CF5E
:10043000808185FFF2CFA889B9898C9185FFEDCFA6
:10044000CE010E949D01E7CFDF91CF91089580E01A
:1004500090E0892B29F00E94930181110C940000F7
:1004600008958E3008F08E508770806480937C00F1
:1004700080917A00806480937A0080917A0086FD72
:10048000FCCF809178002091790090E0922B089524
:100490003FB7F8948091AC019091AD01A091AE016D
:1004A000B091AF0126B5A89B05C02F3F19F001966A
:1004B000A11DB11D3FBFBA2FA92F982F8827820FEA
:1004C000911DA11DB11DBC01CD0142E0660F771F3A
:1004D000881F991F4A95D1F7089585ED8093BC0038
:1004E0008091BC0084FDFCCF10922F0208954091B2
:1004F0008201262F30E0240F311D21323105DCF43A
:1005000020912F022430C9F4FC0180E090E086178E
:1005100058F4309182012191DC01A05ABE4FA30F03
:10052000B11D2C930196F3CF80918201680F6093E7
:10053000820180E0089581E0089582E008950895A1
:10054000E091E8018091E701E81730F4F0E0E7512D
:10055000FE4F808190E008958FEF9FEF0895909176
:10056000E8018091E701981750F4E92FF0E0E75196
:10057000FE4F208130E09F5F9093E80102C02FEF93
:100580003FEFC90108958091E70190E02091E801D3
:10059000821B91090895CF92DF92EF92FF920F9301
:1005A0001F93CF93DF937C01262F972F8A01809191
:1005B0003002882391F0C62FD72F6E01C40ED51EAE
:1005C000CC15DD0571F06991D701ED91FC91019099
:1005D000F081E02DC7010995F3CF642F822F0E948F
:1005E0007702C801DF91CF911F910F91FF90EF909B
:1005F000DF90CF900895CF93DF931F92CDB7DEB7F2
:100600006983209130022223D1F0209153022032BD
:1006100040F021E030E0FC013383228380E090E071
:1006200015C080913102E82FF0E0EE5CFD4F99811A
:1006300090838F5F809331028093530205C061E005
:10064000CE0101960E94770281E090E00F90DF9149
:10065000CF910895CF93C62F9091160321E0209358
:100660003002909352021092310210925302682F7E
:1006700081EF92E00E94FB026C2F81EF92E00E94DA
:10068000FB0281E0CF910C948800089580E090E017
:1006900008950895E2EBF1E08E549E4FDC011C9228
:1006A00010821182178248E050E0BF0184E592E099
:1006B0000C942B01089590912F029111FCCF61327F
:1006C00008F060E291E090932F0290932E022FEFBA
:1006D00020932D0210922C02260F20932B02909330
:1006E0000A0290910A02880F892B80930A02809156
:1006F0000902813061F41092090280910A0280930C
:10070000BB008091BC0083FDF8CF85EC01C085EE75
:100710008093BC0080912F028130E1F380912C0204
:10072000861710F460912C02ABE0B2E029EE31E0C4
:10073000F9018E2F821B861718F48D918193F9CFC2
:100740001092E8016093E701862F0895CF93DF931D
:10075000EC01898D91E090933002809352021092C7
:1007600031021092530281EF92E00E94FB0280E07E
:100770000E948800898D61E070E0082E000C990BC2
:100780000E945B039091E7018091E801981729F09E
:1007900081EF92E00E94AF0201C08FEFDF91CF9115
:1007A0000895CF93DF93009779F0FC01019000202A
:1007B000E9F73197AF01481B590BBC0184E592E082
:1007C0000E942B01EC0102C0C0E0D0E042E050E00A
:1007D00068E371E084E592E00E942B018C0F9D1F7D
:1007E000DF91CF9108950E94760C0F931F93CF93C2
:1007F000DF938C01EB0188E2FB0111928A95E9F706
:100800004BE050E06BE371E0CE010E947B0C1B8655
:1008100041E050E060E070E04C875D876E877F8745
:10082000F80185899689A789B08D888B998BAA8BC9
:10083000BB8B4C8B5D8B6E8B7F8B1CA21DA21EA273
:100840001FA2188E198E1A8E1B8E1C8E1D8E1E8E48
:100850001F8E18A219A21AA21BA2DF91CF911F917D
:100860000F9108958F929F92AF92BF92CF92DF9295
:10087000EF92FF920F931F93CF93DF93EC018B01C5
:1008800084E2FB0111928A95E9F784E290E0A0E00E
:10089000B0E0FB0180839183A283B3838D899E891D
:1008A000AF89B88D84839583A683B78381E090E078
:1008B000A0E0B0E080879187A287B387108A118A71
:1008C000128A138A898D91E09093300280935202AC
:1008D000109231021092530261E081EF92E00E9487
:1008E000FB0280E00E948800898D66E070E0082E9F
:1008F000000C990B0E945B0381EF92E00E94AF0213
:100900001B828C8381EF92E00E94AF022B813C819D
:10091000822B932B95958795959587959C838B83B3
:1009200081EF92E00E94AF021D828E8381EF92E000
:100930000E94AF022D813E81822B932B9595879546
:10094000959587959E838D8381EF92E00E94AF02FB
:100950001F82888781EF92E00E94AF022F81388545
:10096000822B932B959587959595879598878F835F
:100970006EE0CE010E94A6038370823039F0813090
:1009800041F0811109C060E070E108C060E074E0EE
:1009900005C060E078E002C061E070E080E090E0D7
:1009A0000E941F0A6B017C016B817C81072E000C69
:1009B000880B990B0E94210AA70196010E94AD099C
:1009C0004B015C0169877A878B879C876D817E816B
:1009D000072E000C880B990B0E94210AA701960193
:1009E0000E94AD096D877E878F87988B6F81788590
:1009F000072E000C880B990B0E94210AA701960173
:100A00000E94AD09698B7A8B8B8B9C8B2AE038EE28
:100A10004CE151E4C501B4010E94D60AF801648B8F
:100A2000758B868B978B2AE038EE4CE151E46D850F
:100A30007E858F8598890E94D60AF801608F718F14
:100A4000828F938F2AE038EE4CE151E469897A89EC
:100A50008B899C890E94D60AF801648F758F868FD6
:100A6000978F81E0DF91CF911F910F91FF90EF90D1
:100A7000DF90CF90BF90AF909F908F9008950C948F
:100A8000DE0B1F920F920FB60F9211242F933F93FC
:100A90004F935F936F937F938F939F93AF93BF9386
:100AA000EF93FF9384E592E00E949D01FF91EF9107
:100AB000BF91AF919F918F917F916F915F914F9176
:100AC0003F912F910F900FBE0F901F9018951F927E
:100AD0000F920FB60F9211242F938F939F93EF9342
:100AE000FF93E0916402F09165028081E0916A02D7
:100AF000F0916B0282FD12C0908180916D028F5F38
:100B00008F7320916E02821751F0E0916D02F0E038
:100B1000EC5AFD4F958F80936D0201C08081FF914B
:100B2000EF919F918F912F910F900FBE0F901F907B
:100B300018951F920F920FB60F9211242F933F9387
:100B40008F939F93AF93BF938091A8019091A90138
:100B5000A091AA01B091AB013091A70123E0230F2E
:100B60002D3720F40196A11DB11D05C026E8230FE5
:100B70000296A11DB11D2093A7018093A801909317
:100B8000A901A093AA01B093AB018091AC0190910F
:100B9000AD01A091AE01B091AF010196A11DB11DB3
:100BA0008093AC019093AD01A093AE01B093AF01DF
:100BB000BF91AF919F918F913F912F910F900FBE59
:100BC0000F901F9018951F920F920FB60F9211243D
:100BD0002F933F934F935F936F937F938F939F9345
:100BE000AF93BF93EF93FF938091B900887F8036D6
:100BF00009F49CC068F5883209F45BC090F4803138
:100C000009F454C038F4882309F4F6C0883009F494
:100C10004DC0F6C0883109F44CC0803209F45DC083
:100C2000EFC0803409F468C048F4803309F455C03B
:100C3000883309F0E5C080932D02D8C0803509F4CF
:100C40004FC0883509F45DC0883409F0D9C0D6C0DA
:100C5000883909F4C7C0A8F4883709F467C038F4A4
:100C6000883609F463C0803709F460C0C9C0883889
:100C700009F4B8C0803909F45FC0803809F0C0C0F9
:100C80005BC0803B09F486C038F4803A09F466C042
:100C9000883A09F47FC0B4C0803C09F4A7C0883CFE
:100CA00009F4A4C0883B09F48AC0AAC080910A0252
:100CB00010C090912C0280912B02981770F5E09152
:100CC0002C0281E08E0F80932C02F0E0E55FFD4F57
:100CD00080818093BB0085EC86C080932D028EC0FE
:100CE000E0912C0281E08E0F80932C028091BB005A
:100CF000F0E0E55FFD4F808390912C0280912B0204
:100D00006EC0E0912C0281E08E0F80932C028091C6
:100D1000BB00F0E0E55FFD4F808380912E028111E2
:100D20006DC081E08093090284EA61C083E0809312
:100D30002F021092A601CFCF8091A601803208F039
:100D400051C0E091A60181E08E0F8093A6018091B1
:100D5000BB00F0E0EA57FE4F8083BDCF85EC809367
:100D6000BC0010922F028091A601803230F4E091F5
:100D7000A601F0E0EA57FE4F10826091A60170E0F4
:100D8000E0918401F091850186E891E00995109247
:100D9000A60136C084E080932F0210928301109246
:100DA0008201E0918001F091810109958091820199
:100DB000811105C081E08093820110926001E09171
:100DC000830181E08E0F80938301F0E0E05AFE4FB3
:100DD00080818093BB00909183018091820198175C
:100DE00008F479CF85E88093BC000AC085EC809335
:100DF000BC0010922F0204C010922D020E946D02BE
:100E0000FF91EF91BF91AF919F918F917F916F91E2
:100E10005F914F913F912F910F900FBE0F901F90B8
:100E20001895E4E5F2E01382128288EE93E0A0E0E8
:100E3000B0E084839583A683B7832AE031E03183D1
:100E4000208325EC30E03587248724EC30E0378799
:100E5000268720EC30E0318B208B21EC30E0338B87
:100E6000228B22EC30E0358B248B26EC30E0378B64
:100E7000268B118E128E138E148EE1EFF2E0138208
:100E8000128284839583A683B7838CE191E091835A
:100E90008083EDEFF2E08EE291E0918380838FEF2B
:100EA0009FEFDC01858B968BA78BB08F0895CF9336
:100EB000DF93CDB7DEB76E970FB6F894DEBF0FBEE7
:100EC000CDBF789484B5826084BD84B5816084BDD3
:100ED00085B5826085BD85B5816085BD80916E00D8
:100EE000816080936E001092810080918100826009
:100EF0008093810080918100816080938100809146
:100F000080008160809380008091B1008460809334
:100F1000B1008091B00081608093B00080917A0030
:100F2000846080937A0080917A00826080937A0056
:100F300080917A00816080937A0080917A00806845
:100F400080937A001092C1001092B0011092B1010A
:100F5000E0916402F091650282E08083E09160029A
:100F6000F09161021082E0916202F09163028FECD5
:100F7000808310926C02E0916802F091690286E031
:100F80008083E0916602F0916702808180618083B6
:100F9000E0916602F0916702808188608083E09131
:100FA0006602F0916702808180688083E09166022A
:100FB000F091670280818F7D80838B818093FF0217
:100FC0008C819D8190930103809300038E819F818A
:100FD000909303038093020388859985909305037A
:100FE000809304038A859B85AC85BD858093060329
:100FF00090930703A0930803B09309038E859F8500
:10100000A889B98980930A0390930B03A0930C03DA
:10101000B0930D038A899B89AC89BD8980930E03A7
:1010200090930F03A0931003B09311038FEF9FEFE2
:10103000DC018093120390931303A0931403B093E5
:1010400015038A8D80931603EBE9F0E02491E7E81D
:10105000F0E08491882399F090E0880F991FFC01BB
:10106000E859FF4FA591B491FC01EE58FF4F8591CF
:1010700094918FB7F894EC91E22BEC938FBF109280
:10108000E8011092E701109231021092530210927F
:101090002F0211E010932E021092090282E10E94A9
:1010A000E50083E10E94E5008091B9008E7F809386
:1010B000B9008091B9008D7F8093B90088E4809356
:1010C000B80085E48093BC008DE1809316036DE049
:1010D0008DEF92E00E94A6038A3109F031C160E4ED
:1010E0008BE20E942A036BE28DEF92E00E94A6033E
:1010F00086FDF9CF61E08EE00E942A0362E08BE278
:101100000E942A0361E08DE20E942A0361E08EE2E0
:101110000E942A0360E481E10E942A0365E08AE2DA
:101120000E942A0383E491E00E94D1031092DE0121
:101130006AE28DEF92E00E94A603182F60E08AE237
:101140000E942A0360E08EE00E942A03612F616002
:101150008AE20E942A0397E0292E29E0822E3FE0AE
:10116000332E80E00E9431025C019093E60180936F
:10117000E50181E00E9431026C019093E4018093CB
:10118000E30182E00E9431027C019093E2018093AE
:10119000E10183E00E9431028C019093E001809391
:1011A000DF019090DE01911006C06AEB71E08DEFD7
:1011B00092E00E9432040E9448029B01AC0184E14B
:1011C000482E512C612C712C2B8F3C8F4D8F5E8FB4
:1011D0000E9448022B8D3C8D4D8D5E8DDC01CB0134
:1011E000821B930BA40BB50B883E9340A105B10560
:1011F00048F061E0461A51086108710828513C4FD7
:101200004F4F5F4F4114510461047104E9F68DE0C2
:10121000A816B1041CF464E06093B5018DE0C81613
:10122000D1041CF466E16093B4018DE0E816F1048A
:1012300014F42092B6010C30110514F48092B70119
:10124000911025C08091B101811121C0C090D201BF
:10125000D090D301E090D401F090D50120E030E0AF
:1012600048E951E4C701B6010E94D10A181654F0AA
:1012700020E030E048E951ECC701B6010E94A8091E
:1012800018162CF03092B80181E08093B10148E04B
:1012900050E062EB71E084E592E00E942B018091C6
:1012A000E5019091E6010D9724F083E090E00E9423
:1012B0004A038091E3019091E4010D9724F082E0CC
:1012C00090E00E944A038091E1019091E2010D9724
:1012D00024F084E090E00E944A038091DF01909125
:1012E000E0010D9724F085E090E00E944A03809190
:1012F000DE01811122C0C090D201D090D301E090D4
:10130000D401F090D50120E030E048E951E4C70174
:10131000B6010E94A809181684F020E030E048E9E0
:1013200051ECC701B6010E94D10A87FD06C086E0D4
:1013300090E00E944A031092B1010E94270211CF4F
:1013400082E591E00E94D1031093DE0104CF08955D
:101350000E945C0A08F481E008950E94C1090C947F
:10136000970A0E94900A58F00E94890A40F029F4D6
:101370005F3F29F00C94800A51110C94CB0A0C9415
:10138000860A0E94A80A68F39923B1F3552391F3C2
:10139000951B550BBB27AA2762177307840738F0E4
:1013A0009F5F5F4F220F331F441FAA1FA9F335D041
:1013B0000E2E3AF0E0E832D091505040E695001CF5
:1013C000CAF72BD0FE2F29D0660F771F881FBB1FAF
:1013D000261737074807AB07B0E809F0BB0B802D8D
:1013E000BF01FF2793585F4F3AF09E3F510578F0B9
:1013F0000C94800A0C94CB0A5F3FE4F3983ED4F33C
:10140000869577956795B795F7959F5FC9F7880F8C
:10141000911D9695879597F90895E1E0660F771FDE
:10142000881FBB1F621773078407BA0720F0621B6F
:10143000730B840BBA0BEE1F88F7E0950895E894C0
:1014400009C097FB3EF490958095709561957F4F0C
:101450008F4F9F4F9923A9F0F92F96E9BB279395BA
:10146000F695879577956795B795F111F8CFFAF4CA
:10147000BB0F11F460FF1BC06F5F7F4F8F4F9F4FFB
:1014800016C0882311F096E911C0772321F09EE859
:10149000872F762F05C0662371F096E8862F70E0BF
:1014A00060E02AF09A95660F771F881FDAF7880F99
:1014B0009695879597F90895990F0008550FAA0BEF
:1014C000E0E8FEEF16161706E807F907C0F0121657
:1014D0001306E407F50798F0621B730B840B950B5A
:1014E00039F40A2661F0232B242B252B21F40895AF
:1014F0000A2609F4A140A6958FEF811D811D08954C
:1015000097F99F6780E870E060E008959FEF80ECB6
:10151000089500240A941616170618060906089559
:1015200000240A9412161306140605060895092EBF
:101530000394000C11F4882352F0BB0F40F4BF2B2E
:1015400011F460FF04C06F5F7F4F8F4F9F4F08956E
:1015500057FD9058440F551F59F05F3F71F0479564
:10156000880F97FB991F61F09F3F79F08795089549
:10157000121613061406551FF2CF4695F1DF08C068
:10158000161617061806991FF1CF86957105610585
:1015900008940895E894BB2766277727CB0197F92D
:1015A00008950E945C0A08F48FEF08950E94E90AEA
:1015B0000C94970A0E94890A38F00E94900A20F041
:1015C000952311F00C94800A0C94860A11240C9433
:1015D000CB0A0E94A80A70F3959FC1F3950F50E0C3
:1015E000551F629FF001729FBB27F00DB11D639FD5
:1015F000AA27F00DB11DAA1F649F6627B00DA11D7B
:10160000661F829F2227B00DA11D621F739FB00D20
:10161000A11D621F839FA00D611D221F749F332790
:10162000A00D611D231F849F600D211D822F762F29
:101630006A2F11249F5750409AF0F1F088234AF006
:10164000EE0FFF1FBB1F661F771F881F9150504072
:10165000A9F79E3F510580F00C94800A0C94CB0AA8
:101660005F3FE4F3983ED4F3869577956795B795F9
:10167000F795E7959F5FC1F7FE2B880F911D969513
:10168000879597F90895EE0FFF1F0590F491E02DCF
:101690000994CF93DF938230910510F482E090E0BB
:1016A000E0911903F0911A0320E030E0C0E0D0E0AF
:1016B000309711F14081518148175907C0F0481700
:1016C000590761F482819381209719F09B838A8363
:1016D0002BC090931A038093190326C0211531055E
:1016E00019F04217530718F49A01BE01DF01EF0108
:1016F0000280F381E02DDCCF2115310509F1281B93
:10170000390B2430310590F412968D919C911397EA
:101710006115710521F0FB019383828304C09093CE
:101720001A0380931903FD01329644C0FD01E20FB4
:10173000F31F81939193225031092D933C933AC02A
:101740002091170330911803232B41F420910201BB
:101750003091030130931803209317032091000167
:10176000309101012115310541F42DB73EB740916B
:10177000040150910501241B350BE0911703F091F2
:101780001803E217F307A0F42E1B3F0B28173907A5
:1017900078F0AC014E5F5F4F2417350748F04E0FCD
:1017A0005F1F50931803409317038193919302C0D6
:1017B000E0E0F0E0CF01DF91CF9108950F931F9308
:1017C000CF93DF93009709F48CC0FC01329713820A
:1017D00012820091190310911A030115110581F469
:1017E00020813181820F931F2091170330911803BC
:1017F0002817390779F5F0931803E093170371C0A0
:10180000D80140E050E0AE17BF0750F412962D917A
:101810003C911397AD012115310509F1D901F3CFA1
:101820009D01DA013383228360817181860F971FC6
:101830008217930769F4EC0128813981260F371F3D
:101840002E5F3F4F318320838A819B8193838283E4
:10185000452B29F4F0931A03E093190342C0139621
:10186000FC93EE931297ED01499159919E01240F3B
:10187000351FE217F30771F480819181840F951F62
:10188000029611969C938E938281938113969C93DA
:101890008E931297E0E0F0E0D80112968D919C9122
:1018A0001397009719F0F8018C01F6CF8D919C9158
:1018B00098012E5F3F4F820F931F209117033091A5
:1018C00018032817390769F4309729F410921A037E
:1018D0001092190302C0138212821093180300930E
:1018E0001703DF91CF911F910F91089581E090E050
:1018F000F8940C948A0CFB01DC014150504048F0F4
:1019000001900D920020C9F701C01D924150504036
:10191000E0F7089510E0CDE5D0E004C0FE010E949C
:0E192000430B2196CE35D107C9F7F894FFCFBF
:10192E0000001B03800000000000BE012B015601C9
:10193E00050287016501790100000000FB02CB0260
:10194E0046039F02C302AF02A0020000000049033B
:10195E003F055A033204F5030D0A004D4D4138344C
:10196E003531004D4D413834353120666F756E641A
:10197E002100436F756C646E742073746172740011
:00000001FF
